:020000000328D3
:1000060083160313880105140130831288008316B2
:10001600031788018312031305189628A2010830D6
:100026002202031855280518382801300805F10062
:100036000730F0007108F200700803192628F20D47
:100046007210FF3E20287208A3000808F000F00C8A
:10005600F013720870048800EA30FC00C330FD001B
:10006600FD0B3328FC0B33285328FF308800023061
:10007600FB008630FC009930FD00FD0B4028FC0B90
:100086004028FB0B402888010230FB008630FC002C
:100096009930FD00FD0B4D28FC0B4D28FB0B4D2820
:1000A600A20A1228A201083022020318892805187C
:1000B6006C28A3010808F000F00D70107008880085
:1000C600EA30FC00C330FD00FD0B6728FC0B6728F7
:1000D6008728FF3088000230FB008630FC0099300C
:1000E600FD00FD0B7428FC0B7428FB0B742888019B
:1000F6000230FB008630FC009930FD00FD0B8128A4
:10010600FC0B8128FB0B8128A20A56280230FB0033
:100116008630FC009930FD00FD0B8F28FC0B8F28E4
:10012600FB0B8F28B128FF3088000230FB00863099
:10013600FC009930FD00FD0B9E28FC0B9E28FB0B56
:100146009E2888010230FB008630FC009930FD00B5
:10015600FD0BAB28FC0BAB28FB0BAB280D28B228FC
:04400E00FD2F00077B
:00000001FF
